:100000000C945D000C9485000C9485000C94850084
:100010000C9485000C9485000C9485000C9485004C
:100020000C9485000C9485000C9485000C9485003C
:100030000C9485000C9485000C9485000C9485002C
:100040000C941E020C9485000C948E020C94680291
:100050000C9485000C9485000C9485000C9485000C
:100060000C9485000C9485000000000024002700FB
:100070002A0000000000250028002B0004040404CE
:100080000404040402020202020203030303030342
:10009000010204081020408001020408102001021F
:1000A00004081020000000080002010000030407FB
:1000B0000000000000000000280411241FBECFEF44
:1000C000D8E0DEBFCDBF11E0A0E0B1E0E0E6FBE0AC
:1000D00002C005900D92A032B107D9F721E0A0E24D
:1000E000B1E001C01D92A83CB207E1F710E0CDE5F8
:1000F000D0E004C02197FE010E94A805CC35D107AD
:10010000C9F70E94C0020C94AE050C94000090E068
:10011000FC01EC55FF4F2491FC01E057FF4F349157
:10012000FC01E458FF4FE491EE23C9F0222339F09B
:10013000233001F1A8F4213019F1223029F1F0E047
:10014000EE0FFF1FEE58FF4FA591B4918FB7F894B3
:10015000EC91611126C030953E233C938FBF0895EA
:100160002730A9F02830C9F0243049F78091800069
:100170008F7D03C0809180008F7780938000DFCFD8
:1001800084B58F7784BDDBCF84B58F7DFBCF809125
:10019000B0008F778093B000D2CF8091B0008F7D78
:1001A000F9CF3E2BDACFCF93DF9390E0FC01E057FD
:1001B000FF4F249184589F4FFC0184918823D1F0F4
:1001C00090E0880F991FFC01E859FF4FA591B49169
:1001D000FC01EE58FF4FC591D49161110EC09FB73D
:1001E000F8948C91E22FE0958E238C932881E22362
:1001F000E8839FBFDF91CF9108958FB7F894EC917A
:10020000E22BEC938FBFF6CFAF92BF92CF92DF92EB
:10021000EF92FF920F931F93CF93DF936C017B01BB
:100220008B01040F151FEB015E01AE18BF08C0174C
:10023000D10759F06991D601ED91FC910190F081BF
:10024000E02DC6010995892B79F7C501DF91CF9182
:100250001F910F91FF90EF90DF90CF90BF90AF90E4
:100260000895FC01538D448D252F30E0842F90E0BC
:10027000821B930B541710F0CF96089501970895A1
:10028000FC01918D828D981761F0A28DAE0FBF2F6A
:10029000B11D5D968C91928D9F5F9F73928F90E0C0
:1002A00008958FEF9FEF0895FC01918D828D98172F
:1002B00031F0828DE80FF11D858D90E008958FEF6C
:1002C0009FEF0895FC01918D228D892F90E0805C35
:1002D0009F4F821B91098F73992708958BE291E0BC
:1002E0000E94620121E0892B09F420E0822F089509
:1002F00080E090E0892B29F00E946E0181110C941E
:1003000000000895FC01A48DA80FB92FB11DA35AB8
:10031000BF4F2C91848D90E001968F739927848F25
:10032000A689B7892C93A089B1898C918370806448
:100330008C93938D848D981306C00288F389E02DE9
:1003400080818F7D80830895EF92FF920F931F939A
:10035000CF93DF93EC0181E0888F9B8D8C8D981378
:100360001AC0E889F989808185FF15C09FB7F89484
:10037000EE89FF896083E889F989808183708064D0
:1003800080839FBF81E090E0DF91CF911F910F911B
:10039000FF90EF900895F62E0B8D10E00F5F1F4F2A
:1003A0000F731127E02E8C8D8E110CC00FB607FC39
:1003B000FACFE889F989808185FFF5CFCE010E94C7
:1003C0008201F1CFEB8DEC0FFD2FF11DE35AFF4FB2
:1003D000F0829FB7F8940B8FEA89FB898081806255
:1003E000CFCFCF93DF93EC01888D8823B9F0AA8912
:1003F000BB89E889F9898C9185FD03C0808186FDE0
:100400000DC00FB607FCF7CF8C9185FFF2CF80812E
:1004100085FFEDCFCE010E948201E9CFDF91CF9120
:100420000895FC0101900020E9F73197AF01481BC6
:10043000590BBC018BE291E00C9404011F920F92C6
:100440000FB60F9211242F933F938F939F93AF93E7
:10045000BF938091270190912801A0912901B0912B
:100460002A013091260123E0230F2D3758F50196FC
:10047000A11DB11D2093260180932701909328018F
:10048000A0932901B0932A01809122019091230128
:10049000A0912401B09125010196A11DB11D809369
:1004A000220190932301A0932401B0932501BF91D1
:1004B000AF919F918F913F912F910F900FBE0F9011
:1004C0001F90189526E8230F0296A11DB11DD2CFCB
:1004D0001F920F920FB60F9211242F933F934F93B9
:1004E0005F936F937F938F939F93AF93BF93EF939C
:1004F000FF938BE291E00E948201FF91EF91BF9107
:10050000AF919F918F917F916F915F914F913F91AB
:100510002F910F900FBE0F901F9018951F920F9262
:100520000FB60F9211242F938F939F93EF93FF9306
:10053000E0913B01F0913C018081E0914101F0911B
:10054000420182FD1BC09081809144018F5F8F73B7
:1005500020914501821741F0E0914401F0E0E55D12
:10056000FE4F958F80934401FF91EF919F918F9162
:100570002F910F900FBE0F901F9018958081F4CF90
:10058000CF93DF93CDB7DEB7A1970FB6F894DEBF58
:100590000FBECDBF789484B5826084BD84B5816080
:1005A00084BD85B5826085BD85B5816085BD80913E
:1005B0006E00816080936E001092810080918100B6
:1005C00082608093810080918100816080938100AE
:1005D000809180008160809380008091B100846070
:1005E0008093B1008091B00081608093B0008091D1
:1005F0007A00846080937A0080917A008260809390
:100600007A0080917A00816080937A0080917A00EC
:10061000806880937A001092C10060E08EE00E94B2
:10062000D30061E08BE00E94D300E0913B01F091A8
:100630003C0182E08083E0913701F0913801108223
:10064000E0913901F0913A018FEC808310924301DF
:10065000E0913F01F091400186E08083E0913D010F
:10066000F0913E01808180618083E0913D01F091B5
:100670003E01808188608083E0913D01F0913E01E0
:10068000808180688083E0913D01F0913E0180810E
:100690008F7D80838FEAC82E80E0D82E9AE0892E45
:1006A000912CA12CB12C20E0E22E20E0F22E80E44F
:1006B00080937C0080917A00806480937A0080919E
:1006C0007A0086FDFCCF8091780060917900762FCA
:1006D000682F072E000C880B990B0E948D0420EDCB
:1006E0003FE34FE75EE30E94F1040E9455042B01B3
:1006F0008B01709321016093200161E08BE00E94E7
:10070000D3004114510409F047C060E08BE00E941F
:10071000870082E191E00E94110220902001309038
:100720002101032C000C4408550857FE7BC06DE2E4
:100730008BE291E00E94A40122273327A90122190C
:1007400033094409550919A28E010F5D1F4FCA01D3
:10075000B901A50194010E948605605DF8016293CC
:100760008F01211531054105510589F70115110545
:1007700019F0C8010E9411028DE191E00E9411025E
:10078000E114F10409F493CF0E946E01882309F467
:100790008ECF0E9400008BCF0F3F110511F461E056
:1007A000B5CFF6018491833019F140F48130B1F076
:1007B0008230C9F00038110594F7A7CF873011F1C6
:1007C000883041F18430B1F780918000806280935D
:1007D000800050928B0040928A009BCF84B5806845
:1007E00084BD47BC96CF84B5806284BD48BC91CFA0
:1007F00080918000806880938000509289004092B0
:10080000880087CF8091B00080688093B0004092CC
:10081000B3007FCF8091B00080628093B00040929F
:10082000B40077CFA201910119A28E010F5D1F4F75
:10083000CA01B901A50194010E948605605DF80115
:1008400062938F01211531054105510589F78ECF3E
:10085000EBE2F1E01382128288EE93E0A0E0B0E0D8
:1008600084839583A683B78384E091E0918380831A
:1008700085EC90E09587848784EC90E09787868765
:1008800080EC90E0918B808B81EC90E0938B828B5D
:1008900082EC90E0958B848B86EC90E0978B868B36
:1008A000118E128E138E148E08950E945C0468942B
:1008B000B1110C94EB0408950E94D00488F09F5766
:1008C00098F0B92F9927B751B0F0E1F0660F771F74
:1008D000881F991F1AF0BA95C9F714C0B13091F06A
:1008E0000E94EA04B1E008950C94EA04672F782F7F
:1008F0008827B85F39F0B93FCCF38695779567952F
:10090000B395D9F73EF490958095709561957F4F9A
:100910008F4F9F4F0895E89409C097FB3EF4909540
:100920008095709561957F4F8F4F9F4F9923A9F0C8
:10093000F92F96E9BB279395F69587957795679557
:10094000B795F111F8CFFAF4BB0F11F460FF1BC09B
:100950006F5F7F4F8F4F9F4F16C0882311F096E92E
:1009600011C0772321F09EE8872F762F05C06623DC
:1009700071F096E8862F70E060E02AF09A95660F95
:10098000771F881FDAF7880F9695879597F908954E
:1009900057FD9058440F551F59F05F3F71F0479530
:1009A000880F97FB991F61F09F3F79F08795089515
:1009B000121613061406551FF2CF4695F1DF08C034
:1009C000161617061806991FF1CF86957105610551
:1009D00008940895E894BB2766277727CB0197F9F9
:1009E00008950E9404050C9475050E94670538F06F
:1009F0000E946E0520F0952311F00C945E050C9476
:100A0000640511240C94EB040E94C80470F3959FB4
:100A1000C1F3950F50E0551F629FF001729FBB27F5
:100A2000F00DB11D639FAA27F00DB11DAA1F649F91
:100A30006627B00DA11D661F829F2227B00DA11D44
:100A4000621F739FB00DA11D621F839FA00D611DCA
:100A5000221F749F3327A00D611D231F849F600DEB
:100A6000211D822F762F6A2F11249F5750409AF014
:100A7000F1F088234AF0EE0FFF1FBB1F661F771FA0
:100A8000881F91505040A9F79E3F510580F00C946B
:100A90005E050C94EB045F3FE4F3983ED4F3869537
:100AA00077956795B795F795E7959F5FC1F7FE2B0B
:100AB000880F911D9695879597F9089597F99F67E7
:100AC00080E870E060E008959FEF80EC08950024D6
:100AD0000A941616170618060906089500240A94A3
:100AE00012161306140605060895092E0394000C29
:100AF00011F4882352F0BB0F40F4BF2B11F460FFB8
:100B000004C06F5F7F4F8F4F9F4F0895A1E21A2E51
:100B1000AA1BBB1BFD010DC0AA1FBB1FEE1FFF1FA1
:100B2000A217B307E407F50720F0A21BB30BE40BF1
:100B3000F50B661F771F881F991F1A9469F7609538
:100B40007095809590959B01AC01BD01CF010895F2
:100B5000EE0FFF1F0590F491E02D0994F894FFCF5C
:100B600000000000A40104013101F1016201400113
:100B700054014272696768746E657373000D0A00F0
:00000001FF
